:100000000C942D140C945E140C945E140C945E14D9
:100010000C945E140C945E140C945E140C945E1498
:100020000C945E140C945E140C945E140C945E1488
:100030000C945E140C944B360C945E140C945E1469
:100040000C945E140C945E140C945E140C945E1468
:100050000C945E140C945E140C945E140C94013693
:100060000C945E140C94F1370C94C7370C945E1406
:100070000C945E140C945E140C945E140C945E1438
:100080000C9409470C945E140C945E140C945E144A
:100090000C945E140C945E140C945E140C94CA239D
:1000A0000C945E140C945E140C945E140C945E1408
:1000B0000C945E140C945E140C945E140C945E14F8
:1000C0000C945E140C945E140C945E140C94C82270
:1000D0000C949E220C945E140C945E140C945E148A
:1000E0000C945E140C9493280C94D6340C947616CD
:1000F0000C94B6340C948E490C94BD4F0C94FA3E7B
:100100000C94332F0C94D34F0C94C3150C942C5691
:100110000C94FD490C94C42F0C94CD150C946216CC
:100120000C94C0150C9476530C94A94F0C94CE2AC1
:100130000C9453160C9470310C94CD4F0C94E156E2
:100140000C9426160C949A1F0C9455400C94385B12
:100150000C94554F0C942A350C94C0390C9456339A
:100160000C94C6340C94B3340C94A0490C94B4157C
:100170000C94E9150C948C1F0C940E150C94AC196E
:100180000C94A1310C94DF490C943E350C94F3157A
:100190000C9432350C94074A0C94A4310C94E51558
:1001A0000C947E4F0C9441350C94EE210C9400314C
:1001B0000C943B4F0C94BC150C94B8150C94D94F6F
:1001C0000C9429370C9442180C9427350C94CF5278
:1001D0000C9424150C9457340C9409520C943351FC
:1001E0000C9453350C94AD340C94841A0C94E33471
:1001F0000C9449250C948B4F0C94321F0C94A0281E
:100200000C942F250C94D5460C947C210C947549A4
:100210000C94D3340C943A150C94001D0C94DB15FB
:100220000C9450350C9417550C94403F0C943C5B47
:100230000C9494340C94A2190C94E9490C94E2287F
:100240000C9438350C941C300C94BC490C94E84F39
:100250000C9484160C94EA340C947A340C9444353F
:100260000C94CA4F0C94EF150C94B2490C9465226F
:100270000C94101A0C94FF460C94F3490C94984972
:100280000C945C200C94154F0C94CD190C94AE1565
:100290000C9497340C947D210C94714F0C94751729
:1002A0000C94053F0C94A8490C941C200C947A499A
:1002B0000C94D3150C949A340C9451300C94D64F62
:1002C0000C941A350C94BC340C9450150C94C9340D
:1002D0000C9445150C94CC340C94B0340C94E1156A
:1002E0000C94172D0C9435350C94C6490C942D3F65
:1002F0000C94C9150C94ED340C94FD1F0C94EE1560
:100300000C944D350C94C6210C94EF210C94D04FD5
:100310000C942F150C9467220C94D7150C9410157F
:100320000C94C74F0C9470490C9479150C94362D8D
:100330000C94BF340C94B9340C94F9180C94F0312B
:100340000C9428170C946F200C94072E0C94C44F17
:100350000C9473370C943B350C9445400C949222CA
:100360000C9465150C94444F0C9436400C944B2817
:100370000C94AE1F0C9491340C9484490C947A2004
:100380000C94024D0C945E340C94D5490C944B3F64
:10039000506172616D657472203335005061726115
:1003A0006D65747220333400506172616D657472D2
:1003B000203333004465627567207072696E740083
:1003C00046726964676520736964004F7574736968
:1003D00064652073696400496E736964652073699C
:1003E00064004C6F676F004272696768746E657372
:1003F00073005520636F7272656374696F6E00538A
:10040000687574646F776E2064656C6179005363FE
:100410007265656E206F66662064656C6179004266
:10042000757A7A6572206F7574206D6F6465004D02
:100430004220626175642072617465004D422073D0
:100440006C6176652049440057617465722074615F
:100450006E6B206361700057617465722073656E06
:10046000732074797065005265732073656E732014
:100470006E6F6D005265732073656E7320636F72CB
:100480007200467269646765206F7574206D6F64D1
:1004900065004672696467652074656D70206F66DB
:1004A00066004672696467652074656D70206F6EC2
:1004B0000046726964676520542049474E206F6684
:1004C000660046726964676520542055206F6E008F
:1004D0004672696467652055206F6E0046726964D4
:1004E000676520542055206F666600467269646710
:1004F000652055206F666600436F6E76206F7574B9
:10050000206D6F646500436F6E7620542049474E1E
:10051000206F666600436F6E7620542055206F6E04
:1005200000436F6E762055206F6E00436F6E76200D
:10053000542055206F666600436F6E762055206FFD
:1005400066660050756D70206F7574206D6F646500
:100550000050756D702054206F6666005370617294
:10056000650053706172650053656E73207375701A
:10057000706C7920657272005761746572207365C2
:100580006E732065727200315769726520657272F0
:100590000053706172650050756D702072656C61FA
:1005A00079004672696467652072656C6179004301
:1005B0006F6E762072656C6179004C5757206C65C0
:1005C00076656C0049474E005072782073656E73F3
:1005D0006F7200446F6F72005253205265736973DB
:1005E00074616E63650053656E736F72732056009D
:1005F00054656D70206672696467650054656D703E
:1006000020696E736964650054656D70206F757440
:1006100073696465005761746572206C6576656CFA
:100620000042617474657279205600454550524FFE
:100630004D204B4559204F4B21202000454550521D
:100640004F4D204B4559204953204E4F5420564181
:100650004C494421202000006661756C74000073D1
:1006600075636365737366756C6C79007468657225
:100670006D6F6D6574657249445F33200074686501
:10068000726D6F6D6574657249445F3220007468E5
:1006900065726D6F6D6574657249445F312000430A
:1006A0006F70792073656E736F727320616464720A
:1006B0006573732066726F6D2065657070726F6D03
:1006C0002E2E2E00636865636B207361766564204F
:1006D00073656E736F727300636F707920736574E6
:1006E000706F696E74732066726F6D2065657070CF
:1006F000726F6D0077726974652064656661756CF0
:100700007420006E6F207361766564207365747069
:100710006F696E747300436865636B2073617665FF
:100720006420736574706F696E747300666E4545FE
:1007300070726F6D496E697400466F756E646564A2
:100740002073656E736F72732000666E4F6E65570F
:100750006972655363616E6E6572003F0035374B99
:10076000360033384B340031394B3200394B3600C8
:10077000374B3200344B38005105430538052B0503
:10078000210515050605F804EB04DC04D004C204B9
:10079000B104A20492048204740467045704480458
:1007A0003C042F041F040E04FF03F203E703E203DB
:1007B000D703CB03C003B403A8039C039003504AA0
:1007C00020726563656976652064617461200050FC
:1007D0004A20726563656976655F66726F6D5F4911
:1007E00044200000C0C101C30302C2C60607C705FA
:1007F000C5C404CC0C0DCD0FCFCE0E0ACACB0BC98D
:100800000908C8D81819D91BDBDA1A1EDEDF1FDD6C
:100810001D1CDC14D4D515D71716D6D21213D3113C
:10082000D1D010F03031F133F3F23236F6F737F53C
:100830003534F43CFCFD3DFF3F3EFEFA3A3BFB39CC
:10084000F9F83828E8E929EB2B2AEAEE2E2FEF2DCC
:10085000EDEC2CE42425E527E7E62622E2E323E17C
:100860002120E0A06061A163A3A26266A6A767A59C
:100870006564A46CACAD6DAF6F6EAEAA6A6BAB690C
:10088000A9A86878B8B979BB7B7ABABE7E7FBF7DEC
:10089000BDBC7CB47475B577B7B67672B2B373B1BC
:1008A0007170B050909151935352929656579755FC
:1008B0009594549C5C5D9D5F9F9E5E5A9A9B5B994C
:1008C000595898884849894B8B8A4A4E8E8F4F8D4C
:1008D0004D4C8C44848545874746868242438341FC
:1008E00081804000C1814001C0804101C080410041
:1008F000C1814001C0804100C1814000C1814001EF
:10090000C0804101C0804100C1814000C1814001DF
:10091000C0804100C1814001C0804101C0804100D0
:10092000C1814001C0804100C1814000C1814001BE
:10093000C0804100C1814001C0804101C0804100B0
:10094000C1814000C1814001C0804101C08041009F
:10095000C1814001C0804100C1814000C18140018E
:10096000C0804101C0804100C1814000C18140017F
:10097000C0804100C1814001C0804101C080410070
:10098000C1814000C1814001C0804101C08041005F
:10099000C1814001C0804100C1814000C18140014E
:1009A000C0804100C1814001C0804101C080410040
:1009B000C1814001C0804100C1814000C18140012E
:1009C000C0804101C0804100C1814000C18140011F
:1009D000C0804100C1814001C0804101C080410010
:1009E000C18140005EBCE2613FDD83C29C7E20A3EA
:1009F000FD1F41009D23BE46DB65F88C11AF32CA56
:100A000057E974210615060806FC05F005E605D829
:100A100005D305C805C405BA05AF05A2059705911C
:100A20000587057805680562055C05656570726F68
:100A30006D207570646174656421000000457272F8
:100A40006F722074656D702073656E736F727320A2
:100A5000004572726F722073656E736F72732073CC
:100A60007570706C7920004572726F7220526573D8
:100A70006573746976652077617465722073656E3D
:100A8000736F7220004572726F7220504A20776136
:100A90007465722073656E736F722000002A2A2AB3
:100AA0002A2A2A2A2A2A2A2A2A2A2A2A2A2A2A2AA6
:100AB0002A2A2A2A2A2A2A2A20416C61726D732046
:100AC0002A2A2A2A2A2A2A2A2A2A2A2A2A2A2A2A86
:100AD0002A2A2A2A2A2A2A2A2A2A2A2A2A2A2A2A76
:100AE0000000005761746572206C6576656C204C5F
:100AF00020005265736573746976652073656E7343
:100B00006F7220726573697374616E63652000464D
:100B100072696467652074656D7065726174757261
:100B20006520004F7574736964652074656D706528
:100B30007261747572652000496E73696465207412
:100B4000656D7065726174757265200053656E73B2
:100B50006F727320737570706C7920766F6C74612E
:100B6000676520004261747465727920766F6C74D9
:100B70006167652000002A2A2A2A2A2A2A2A2A2A84
:100B80002A2A2A2A2A2A2A2A2A2A2A2A2A2A2A2AC5
:100B90002A20506172616D6574657273202A2A2A59
:100BA0002A2A2A2A2A2A2A2A2A2A2A2A2A2A2A2AA5
:100BB0002A2A2A2A2A2A2A2A2A2A2A2A2A00000013
:100BC000467269646765206F7574707574207374FC
:100BD0006174652000436F6E766572746572206F74
:100BE0007574707574207374617465200050756D30
:100BF00070206F7574707574207374617465200053
:100C0000002A2A2A2A2A2A2A2A2A2A2A2A2A2A2A6E
:100C10002A2A2A2A2A2A2A2A2A2A2A2A204F757484
:100C200070757473202A2A2A2A2A2A2A2A2A2A2A0A
:100C30002A2A2A2A2A2A2A2A2A2A2A2A2A2A2A2A14
:100C40002A2A2A2A2A00000050726F78696D697476
:100C5000792073656E736F7220696E70757420737E
:100C600074617465200049676E6974696F6E2069EC
:100C70006E7075742073746174652000446F6F72B8
:100C800020696E7075742073746174652000002A89
:100C90002A2A2A2A2A2A2A2A2A2A2A2A2A2A2A2AB4
:100CA0002A2A2A2A2A2A2A2A2A2A20496E70757470
:100CB00073202A2A2A2A2A2A2A2A2A2A2A2A2A2A55
:100CC0002A2A2A2A2A2A2A2A2A2A2A2A2A2A2A2A84
:100CD0002A2A0074696D6572537461727444656C7C
:100CE00061792069732052656164790000002100F8
:100CF000240027002A002D003000330001010000ED
:100D0000040107010A0100002200250028002B0031
:100D10002E003100340002010000050108010B0122
:100D2000025F0003020304030504050A00FE07FE38
:100D300007000142028803B6200500620721073937
:100D400043C7A00422079B52476209230E3D424F2E
:100D5000294906A53228A52401240C3D4257B6D4C2
:100D6000B624D92200250C3D424FA474ABB44809E7
:100D700000260D3D424F9644495649A4480927068E
:100D80001953C7002808BB425752AA152909BB426C
:100D90004756AA94002A0A2D4647965406A52D2B9D
:100DA0000A2D4657180D5218012C079B3E8F5202F0
:100DB0002D060D4EC7202E089B3E4FB224002F0853
:100DC0003D4267AD6308300B3D425796D46C492DC8
:100DD00002310A3D4257262561D320320C3D42CFD5
:100DE00092859194858300330C3D42C7206699AA71
:100DF000250B00340C3D425F2625A564D0C2043586
:100E00000B3D42C73131855AB200360C3D429794B2
:100E10008589494B1600370B3D42C720666156CC89
:100E200000380C3D42CF9269C99269C902390C3D24
:100E300042CF92498A126691043A0ABB3E4FB2A44D
:100E4000C992003B09BB3E4FB2A44A093C08BC42D0
:100E50005FD4D8003D081D4AC7A00E023E08BC4220
:100E600047D8D4063F0A3D42CF9235E65004400CA5
:100E70003D42CF92494B62491700410C3D42579683
:100E8000D4B461C8B400420D3D42C71055A264AA53
:100E9000448302430A3D42CF92896DC902440F3D0B
:100EA00042C71055A2244AA2241A1400450B3D4201
:100EB000C7311C92301C04460A3D42C7311C92B017
:100EC00008470B3D42CF9289A52D5900480A3D4263
:100ED00047661B86CC164908BB42C71275194A0AD9
:100EE0003D42D716B64491044B0D3D424726252579
:100EF0002D892A59004C083D4247D8E3204D0B3D2F
:100F00004247A62D4BA2D9024E0C3D4247A64D4A60
:100F1000226D5A004F0A3D42CF92794B1600500C79
:100F20003D42C79064DAA0844500510A453ECF9205
:100F300079A9AC01520D3D42C79064DAA0942A59B8
:100F400000530B3D42CF92A9AB962C0054093D4271
:100F5000C720853D0155093D4247E65BB200560D6D
:100F60003D4247664B4A4994641100570A3D424747
:100F7000E69228C92D580B3D4247A625B54A4D0B90
:100F8000590A3D4247A625B5B0095A0A3D42C72035
:100F9000661D07015B08BB42C710751A5C083D421D
:100FA0004798760C5D08BB42C7D469085E081D529D
:100FB0005796D4025F060D3EC7206006125B4714A9
:100FC000610A2D42CF9A0C5A3204620B3D424758B7
:100FD000316993A200630A2D42CF928959B200640D
:100FE0000A3D4267C5B4498A12650A2D42CF920D67
:100FF00043BA00660B3D429754C98628AC01670C82
:101000003D3ACFA069C9106AC902680A3D424758F3
:101010003169B6006908BB424F28B50C6A0BCC3A5F
:101020005FACD5242951006B0B3D4247589392A9E0
:1010300092056C08BB4287D4CB006D0B2D4287D242
:10104000A2244AA2056E092D424762D26C016F09A3
:101050002D42CF92D99205700C3D3A4762D2264577
:10106000094300710A3D3A8F699314252C72092DAA
:10107000424762128B0073092D42CF921E140074F6
:101080000C3D424F980D51588A140075092D424766
:10109000E6A42801760B2D4247A625A5248B0077D0
:1010A0000A2D42476649942E00780A2D424796D46D
:1010B0002AB500790C3D3A47665294504B16007A97
:1010C000092D42C7A0B50D027B0ABC4297122662C9
:1010D000140A7C063943C7217D0BBC428718854A18
:1010E0009848007E091D524FA424520200000004BB
:1010F000FFFF00005F0003020304030504050C006A
:10110000FE07FE08FF0142028603AE2005006A07C3
:1011100021073943C7A00422079B56476209230DC4
:1011200035424F65504A4932281500240E4D3E572E
:10113000B654946C4B94CA1601250A3D4287346517
:101140009D2601260D3D424F9644495649A4480923
:1011500027061957C700280BCB3E571225512DCA19
:1011600002290CCB3E47166551254A22002A0B3D29
:101170004257A5B2654B53042B0A2D4657180D5202
:1011800018012C081B3E8F3224002D060D4EC7205F
:101190002E069242C7102F0A3D42671666C52C04E0
:1011A000300ABC428F12794A14003108BB424F22E8
:1011B0007519320A3D42CF928559DB20330C3D42EE
:1011C000C7206699AA250B00340C3D425F2625A551
:1011D00064D0C204350B3D42C77148432D590036D7
:1011E0000C3D42979485439269C902370B3D42C733
:1011F000206661169600380C3D42CF9269C992690B
:10120000C902390C3D42CF9269C9106691043A086F
:10121000AA42C7100D013B09333E8F511912003C01
:1012200007AB4657522B3D081D4AC7A00E023E0889
:10123000AB46475629013F0A3D42CF9235E650045E
:10124000400D3D42CF922943922843BA00410B3DC5
:1012500042CF9269C390D902420D3D42C71055A2B8
:1012600064AA448302430A3D42CF92896DC9024475
:101270000F3D42C71055A2244AA2241A1400450B60
:101280003D42C7311C92301C04460A3D42C7311C06
:1012900092B008470B3D42CF9289A52D5900480ACC
:1012A0003D4247661B86CC164908BB42C7127519DA
:1012B0004A0A3D42D716B64491044B0D3D4247269B
:1012C00025252D892A59004C083D4247D8E3204D59
:1012D0000A3D4247B62C89E6164E0C3D4247A64DC4
:1012E0004A226D5A004F0A3D42CF92794B16005068
:1012F0000C3D42C79064DAA0844500510B3D42CFBB
:1013000092B92452A404520D3D42C79064DAA094CD
:101310002A5900530B3D42CF92A9AB962C00540999
:101320003D42C720853D0155093D4247E65BB2007D
:10133000560B3D4247E69694922C02570A3D42478F
:10134000E62551BA00580B3D4247A625B54A4D0B3C
:10135000590A3D4247A625B5B0095A0A3D42C72061
:10136000661D07015B08CB3EC710F5695C093D426D
:10137000471AA6C5345D08CB3EC7D4A7215E081D19
:10138000565796D4025F060D3AC72060069B564713
:1013900056610A2D42CF9A0C5A3204620C3D4247E4
:1013A000180E49661B1400630A2D42CF928959B268
:1013B00000640A3D426765D06CC910650A2D42CFB2
:1013C000920D4ABA00660A3D429754C9B6B0066704
:1013D0000C3D3ACF92D992214C1600680A3D424703
:1013E000180E49E6166908BB424F28B50C6A0ACCAC
:1013F0003A5FACB54989026B0B3D4247589392A9BD
:1014000092056C08BB4287D4CB006D0B2D4287D26E
:10141000A2244AA2146E092D424762D26C016F09C0
:101420002D42CF92D99205700C3D3AC79064B641D7
:10143000094300710A3D3ACFA0D992212C72092D9F
:10144000424762128B0073092D42CFA01E14007414
:101450000A3D4257180D52581575092D4247E6A40A
:101460002801760A2D4247664B6A1100770A2D4201
:10147000476649942E00780A2D424796D42AB50033
:10148000790A3D3A47664B6A8D007A092D42C7A01A
:10149000B50D027B0ACB3E571255B2A8167C064901
:1014A0003FC7037D0BCB3E4716D592A812017E099C
:1014B0001D4A4FA424520200000004FFFF00005FF9
:1014C00000030304040304050C0BFFFE08FE08FEE2
:1014D00001760345048B200500CC09210882C489CC
:1014E0004B8C002208336D8B884A0023128744BC42
:1014F000483012324582919029128CC4002410A5E4
:101500003CAB58252209314524915A080025198AF7
:10151000C41D914C228949122529224944128C4824
:101520006221492C2601261188C42CA92428894A25
:10153000233291126522012706316D8A01280CA4FD
:10154000B4BA504822D2260B06290CA4B48A604CA7
:10155000498B280D002A0B555CAB949449A61000CA
:101560002B0A554CAB60A8140C012C0842B4098A14
:1015700004002D06135C8A012E0622C409022F0CDA
:1015800084C4BAA45828168AC500300B85449B89A8
:10159000842F920900310984451BC9482F04320D5C
:1015A00085449B8984221389628701330E85449B7D
:1015B000898422125228920900340C8544AB958804
:1015C0002432BA8906350C85448B8324C842914C59
:1015D00000360D85449B89844691B0482600370B20
:1015E00084448B432C140B6901380E85449B8984F9
:1015F00022994858241300390D85449B898445421B
:10160000A34826003A0752C40912013B0872B409E4
:101610001245023C0856CC4B91B2023D0735548B23
:101620006A013E0956CC0BB19222003F0D85449BC6
:10163000899A481407C944004014A93CBDA14C1420
:101640008D8428FA49228A43E420120041108943FC
:10165000CC38603C0D0943B25350322242108744CB
:101660000C938A485252114944870800430E87441C
:10167000AC491A71AA1809862800441288C40C9B28
:101680002C2493C82432894C228B9800450F86C4A1
:101690000B8B282209912421514474461086C40BD7
:1016A0008B28228A48422449484602470F8744AC87
:1016B000491A712AAA4962A24900481189440D0AAF
:1016C000452692894E32914C249330490984C40AAC
:1016D0008A482F044A0C86C42B9A50459790680478
:1016E0004B1189C40C925A4C1494448B22990A6968
:1016F000004C0B86C40B9A50A788E8004D198B4408
:101700000E1A65368A4822A28824228A4822A2908C
:1017100052486522214E1488C40CD944161A8528D3
:10172000A10829348A496611004F0D8744AC598AB3
:101730008C9B24161B01500F87440C938A482292DD
:1017400094A4421A005114983CAC612C2493C824F0
:10175000320945241152A21200520D88C40C9B4834
:10176000A7584DA48532530C86C49B255AB1469A7E
:101770004C00540C86C48B8B9690501B050055135F
:1017800088C40CCA44169285642159481692C548EB
:1017900000561288C40CCA441692C52441495012FE
:1017A00015CB0057198B440E8A64221285944292FD
:1017B00088242489486293A14C281301581188C4B5
:1017C0000CCA44169A04C7C3C82826991059108811
:1017D000C40CCA441693042551B12A09005A0A863A
:1017E000C48B9B6CB44D765B08A3348A8A7E195CEB
:1017F0000C84C48A5830168C0563015D08A3348AB2
:10180000897E295E0B6554AB606C144993055F06B5
:1018100016340B03600723740A9100610854C48ACC
:10182000998462620D86C40BA116C984449A4C0047
:10183000630B55449B8968268A4C00640B86C4BBA5
:10184000A1CA8965A200650955449B89E4202466E4
:101850000D85C4AA89242222C9942800670C8634E5
:10186000CBD048A26966BB00680B86C40BA116C921
:1018700084C424690A84C41A9174A485006A0AA3E2
:10188000B41AB5892E14006B0C86440BA116098975
:101890002451196C0884C48A91BE106D0E5AC40D6F
:1018A0008948B24212914424056E0A56C40B8964D9
:1018B0004262126F0A56C41B8A88494201700D7633
:1018C000B40B896442225D843300710F77B49B8A24
:1018D000482292484612A99000720954C40AC94984
:1018E0000900730854C49A12A902740973449A88AF
:1018F000A4A224750956C40B11978902760C56C40C
:101900008B894A4812138A00770F59448D892E21FA
:10191000892426114A4400780B56C48B894A4C16F8
:101920005119790E76B48B894A4812138A6642009F
:101930007A0955440B8B48C9007B0BA4B42A89480B
:101940004526D2267C0781468B43007D0CA4B40A31
:1019500099484D22D222027E0826DC9B896402002F
:10196000000004FFFF00005F0004030505040506F6
:101970001D19FDFB12FB12FD034607A10A9C200660
:1019800000603C01211345263C63E2E02062646F65
:1019900082A2270E262600220BC624474184273325
:1019A0001100232B4C267449444C444C444C444C69
:1019B00044E680E28046444C444C444C44E680E299
:1019C0008046444C444C444C444C4408002431EC84
:1019D00066732B36F26622464424E424E424E42091
:1019E0002246C2EC20EA40EA20EC2AA24224E4206B
:1019F00022E622E62246442464E630361900253BDE
:101A00005326AC876A8A4244426A66448A26486AF8
:101A100028466C26486C264650244872481E448648
:101A20005284425064264E84264E64284C66264ECC
:101A300066264C4A244E6C0600262E5426B4AF7AF5
:101A4000647648764876489644F8BCDC7884C6626A
:101A5000A666848846868A2488EA88AC2882AC26D2
:101A6000A2E840E8A604002708C22837E1A0002821
:101A700013A666432B4846918C90CC7EA44A484AD4
:101A800055002915A66643214A232921A1997D23C2
:101A9000242324A3280A002A1749255E676C4624BC
:101AA000A42262A4A86422A22444666C06002B0E21
:101AB0008C65744B5457070FA64475052C0D0525EE
:101AC0003B63E26082442623002D08666445E10101
:101AD000012E0B85243C63E2606202002F12472630
:101AE0004C4B232945528AA4144929925205302986
:101AF0004C2674896C646668646882E820E820E893
:101B000020E820E820E820E820E820E82088626833
:101B1000646866648C0800310D4A2A7487E68CFF7D
:101B20005F991C0C321D4B2674A7488662E820E69C
:101B300020E6208642886E8E6E3BA910B188A9836C
:101B40001F33244C2674A94A866468848682868260
:101B5000864468708C767444EA20E820E820E86ABD
:101B60004488C80600341E4C2674517290AE999574
:101B700004550891088D0C8D0C8910C9C183314220
:101B800066070135214C2674E380E260E440263686
:101B90008BAA9919A94942165207410741074123C7
:101BA0004243460036274C2674A96A4666866486F8
:101BB00082868248849082A684826882E820E82017
:101BC000E820E82088626884910D0037174C26745D
:101BD000E12FE424E244C20627072707D911F25275
:101BE0000C0038234C2674896C64666864686468E9
:101BF0008466A444E8CCEA2066C262E820EACC9974
:101C0000C890940D0039284C2674C7888464688273
:101C1000E820E820E820E82088628882A486829074
:101C200044888286826684664666AA08003A1085E1
:101C3000253C63E260621E6EE2606202003B1205B8
:101C4000263B63E260621E6EE26082442623003C13
:101C50000C8C657455908C87A43C153D0CCC247578
:101C6000E18379C88307033E0C8C657441940FC9E6
:101C700078280A3F1A4B266CC5488682E6208642A1
:101C8000888E6E3B41497914736575530040375314
:101C900026A4EF924A5052485846486244CD048DDB
:101CA00084C8CC0CCD1A92A1199299219299A108BD
:101CB0009199190991111219110A237998D1B0B982
:101CC000C1032900412A53229C531E441E821E80B8
:101CD0003C823A825884368636865488328AF2604C
:101CE000508C2E8E2E8E4C906890E4E82000422A74
:101CF00051269CE1C08CA888AA86AA86AA86AA86B4
:101D00008A88D501191511190D5909590959095907
:101D100009590955C5C10D00431F51269CED448842
:101D2000A884708452825482D671AF692368432894
:101D30006328A3A8048F0044295226A4E1A0908818
:101D40008C1119111D0D1D0D5D095D095D095D09E0
:101D50005D095D091D0D1D0D19111911A3833200B7
:101D6000452B4F2694E1410815099D08610861083B
:101D7000514C0851188DD881188D1851185118617F
:101D800008610861089D08D5C1410146244F268C91
:101D9000E1410815099D0861086108514C08511876
:101DA0008DD881188D18511851182D2F0FE200472A
:101DB000275226A4ED448AA886708652845484361D
:101DC000A236A2BABB0342124212421A3A1A3A2A65
:101DD0002209B99B0800482F5326ACE120E6208455
:101DE0008E888E888E888E888E888E888EE8E020F9
:101DF000888E888E888E888E888E888E888E888E33
:101E0000E420E62000490D482654E1208488FF3F65
:101E100039084A194E2284ED209094FF468A84881E
:101E20008488648A446C4888EA0A004B2D5426ACA6
:101E3000E120C888508C4E8E4C904A924894469629
:101E40006496A2F480B2A292A690A88EAA8CAA8CC4
:101E5000AC8AAEE420E820004C164F268CE120929C
:101E600096FFC310C210C2103A11AA8383024D43D9
:101E70005626C4C1F284B2A8CEA82E8228622E8231
:101E800028824A8228642A842884288428844684D4
:101E90002866268628862486288642862868228800
:101EA00028A888286A8A286A8A664A8AA428E82094
:101EB000004E305426B4C1EEA470AA30CC2EEC2CC7
:101EC0008555588851584C5158504D58544958943C
:101ED0004558D8599C5960592459E8D4A8CC650C68
:101EE000004F295326ACED94868C8E888E86928482
:101EF00092A2F260F260F260F260F260B2829284CA
:101F000092868E888E8C86F40C00501E512694E1A9
:101F100015550D190D5909590959095909190D5521
:101F2000CD011935BF3D10045138F3E6AAED948672
:101F30008C8E888E86928492A2F260F260F260F2B9
:101F400060F260A2A6C26484A44884864864884A79
:101F5000628C86F4401E621E8224BABC1E6004009D
:101F6000522D5326ACE1C090A88CAA8AAA8AAA8ACC
:101F7000AA8A1911DD81280D21111D111D51191574
:101F80001955490819490899C58110090053264E69
:101F90002684C92466884450625062328230E2EE60
:101FA00060EA80E880EA60EE20B2B4B252826A242D
:101FB000E408005418502694E1410D4D11D11495B8
:101FC000149514551831FFD3832000552C5326AC9B
:101FD000E120E8847088328A328A328A328A328AF0
:101FE000328A328A328A328A328A328A328A308E0F
:101FF0002ECE46F4200C00562B53229CE120E88480
:102000007088508C2E8E2E8E4C902A922A92489454
:10201000269626964498229A229C1E801E421E4492
:102020001200573F5A22D4E120E220E4848A6C88CF
:102030008A4C8C8A2A8E8A2A8E8A4890C6269226B4
:1020400082269226824494428422962286229622D6
:10205000C6B8889A8A9A8A7C4C1E404E1E404E1002
:102060000058295422A4E140C8A650AC4CCE48B236
:1020700046B642DABC1EA21EA2DC5AA256A634AA5A
:1020800050AA4EAE4AB2C4EA4000591F522294E10F
:1020900020C884508A2E8C4C8E2A904892269444D4
:1020A0009622D89A9C1F1F44015A1E4F268CE3E0AB
:1020B00062AC42AC248E26AC946929D352A6752119
:1020C000841184770707045B0CA66643E14066FF32
:1020D000FF8D015C184A266441706E706E706E70E0
:1020E0006E706E706E706E706E50005D0CA6664302
:1020F000C166FFFFCD81005E154A297E49508E8C56
:102100004A44484446484448428C4C005F084C20AE
:1021100063E18301600BA5643F616466464800612A
:102120001C8E217CE3208A86118D1465D9040D1341
:10213000221222122292920B9B09006220501E84CE
:10214000C1985F94D90C15D190CD909190919091B8
:10215000909190CD50D1140D851C0163198D21747F
:10216000E92066888288624C829253BA08BA1022AB
:10217000A1831000642050228CD198CF2A88666CED
:10218000886AC648C848C848C848C868C668888AAF
:1021900066CC2A0C651A8E217CC96C688688646CB2
:1021A00082ECE041282D5D085D0C91D80D0066168B
:1021B0004C2254CB688466848D0C21D9811421FF74
:1021C000D941100067234DE67A75E66082841105D7
:1021D000110511051109A32BD1D183A10392830A03
:1021E000B9CA3A91831100681F512294C19A9F94F1
:1021F000515CD514511151115111511151115111FD
:1022000051115191DC1C691048224C478A884A1EA2
:10221000C888FFC941006A14E8D63A4B8A884A1E2A
:10222000C888FF472613222334006B2051228CC11B
:102230009A9F1C118D11C9D10892481E441E089204
:10224000D0D190115131398838086C0B48224CC1DB
:1022500088FF7F72106D159821CCC184888CC2C410
:10226000AAC4A488FFFF7F7262726E1E912194C17E
:10227000A48CE2AAA6888A888A888A888A888A881A
:102280008A888A888AE4E6006F1D8E217CC96C6882
:102290008688646C82EC20EC20EC208C626C848854
:1022A0006668CC0800702330DE82C1A2CC66888AC2
:1022B000866C868C848C848C848C846CA688C666A0
:1022C00088A28C98D3834000712230E282A92888AA
:1022D0006442868A668C848C848C848C848C668C24
:1022E00086A868C6AC8298A7070172138C2164C1C6
:1022F0006486A2A482844686909F1D040173198A75
:10230000215CA5224466424A622AC2E840E440E8D1
:10231000AC914484090074142A22542B50DD18D146
:10232000810C197F134213634502751E912194E1BC
:10233000C4888A888A888A888A888A888A888A88D3
:102340008AA8A6EA82ACC400761C901D7CE120A677
:10235000842E8A4A8A2A8E468E2692429222B696E7
:102360007A5A0E00772C971DB4E120C4A4848A2ADF
:10237000888A2A8AC6468A2682268C2682268E4209
:1023800084428E228622B2A8928A766C564E0C0027
:10239000781B911D84E120A695588D6085A8313960
:1023A000B1A944A14C99544DCD4100792130DE7A38
:1023B000E1C6844C8A2A8C488E2690449222D49678
:1023C000987A5A5C50289044F09416007A128B2127
:1023D00064E191A38A9832663511458E0E0E7B100A
:1023E000A66643674466BF512534B38FA4067C08B4
:1023F000433A7CE13F287D12A66643614A68661F26
:1024000049C9C8EC372233007E10AC247D652AC44C
:10241000E4E080C4246A040000000004FFFF000020
:102420005F0002020303030404050700FF06FF0622
:10243000000112022F032C200500BD012106B1B1BD
:10244000192922075BB7495600230A2DB1AB86AA8A
:1024500086AA00240A2DB15B35D820A505250934AC
:10246000B1C920F6060126092CB18B295631052762
:102470000599B719280772B153CD00290872B1899F
:10248000A952002A076BB149D56A2B0A2DB1CD2874
:102490000E9951042C075BAF5325002D060CB5197E
:1024A000012E0652B119012F0724B307B10D3008D0
:1024B00073B1AB5C1500310773B14BB235320A34DE
:1024C000B1533183588E00330B34B11919248D6404
:1024D0005200340A34B18DAA1A318304350A34B15A
:1024E000191A6C249302360A34B15319AC2893029A
:1024F000370B34B11919C40C620611380A34B153C0
:1025000031A9289302390A34B15351A60D92023AE7
:10251000076AB11971043B0833AFB3912A013C0833
:102520006BB14D35C8203D081CB319198D003E090B
:102530006BB1C9208354023F0973B16BA60C130021
:10254000400934B15351DD4801410934B153518E32
:102550002903420A34B15971A4284702430B34B10C
:102560005351830C625200440934B159D1391200DD
:10257000450B34B1191AAC0C321801460B34B119A1
:102580001AAC0C32C800470A34B153518334D3001B
:10259000480834B189724C33490773B159B1354A8F
:1025A0000B34B107196490814C0A4B0A34B1892A63
:1025B0004999CA004C0C34B1C920830C32C860045C
:1025C0004D0934B189E38866004E0834B1896BA99E
:1025D000334F0934B153D1991400500A34B15951D1
:1025E0008E944106510A3CAF53D15C49A300520975
:1025F00034B159518ED40C530A34B1533165542639
:1026000005540773B159B10B550834B1899E49017E
:10261000560934B189CE241500570934B189E638FA
:102620006200580A34B1893249156500590873B1FE
:10263000495659015A0A34B11919C43618015B07B1
:1026400073B119B1395C0924B3C928A38C025D07A1
:1026500073B199CD115E0553B96B5F060CB11901C9
:10266000600652B98901610824B11B51A902620BAD
:1026700034B1C9208315E54800630723B19B1908CD
:10268000640A34B10719A411651A650924B15369A4
:1026900064A000660934B1ADCA99410467092CAF42
:1026A0001B31A98C06680A34B1C9208315CD006995
:1026B0000873B1CB4856036A097BAFCDB0541500FF
:1026C0006B0B34B1C9208394642A036C0773B191F6
:1026D0005D036D0824B1496948196E0724B159D1C9
:1026E0000C6F0824B15351260570092CAF59518E37
:1026F000940171092CAF1B51A60D02720824B15927
:1027000051830C730824B11B1A0D05740A34B1CB24
:1027100020CE0C3212750724B189661A760763B190
:10272000495605770724B189721C780824B1894974
:10273000AA1879092CAF89329525007A0824B11995
:10274000B11C017B0873B14D49D6207C05B1B1396C
:102750007D0A73B1C920AA9822007E0714B94B2ABA
:102760000100000004FFFF000000000A0B02090C3A
:102770000D0E080703040100000000000000000027
:102780000000000000000000000000000000000049
:102790000000000000121110000000000000000006
:1027A0000000000000000000000000000000000029
:1027B0000020002300260029002C002F00320000FA
:1027C00001000003010601090105050505070508CB
:1027D000080808020202020A0A08080404040401A4
:1027E00001010101010101030303030303030304C6
:1027F0000707070C0C0C0C0C0C0C0C020202020656
:10280000060606060606060B0B0B0B0B0B0B0B0145
:1028100002102020080810204010204080020102F1
:1028200001080402010102040810204080804020B9
:1028300010080402018004020180402010080402F4
:102840000108040201010204081020408001020472
:102850000810204080003C5B385B11241FBECFEF86
:10286000D1E2DEBFCDBF00E00CBF1AE0A0E0B2E0D5
:10287000EAEFFDEC00E00BBF02C007900D92A2331F
:10288000B107D9F725E1A2E3BAE001C01D92A33256
:10289000B207E1F714E1CCE2D4E100E006C02197F1
:1028A0000109802FFE010E945E63CB32D10780E0D8
:1028B0000807A9F70E94D74B0C94EB660C94000014
:1028C0008093490F08958230910538F0880F991F41
:1028D000880F991F05970197F1F7089520913E0DF4
:1028E00030913F0D821793074CF040913C0D509171
:1028F0003D0D420F531F841795074CF084EE9BE269
:10290000909318158093171590E080E00895821B2E
:10291000930B880F991F2091460D3091470D820F20
:10292000931FFC017183608381E090E00895209102
:10293000320D3091330D821793074CF04091300DDA
:102940005091310D420F531F841795074CF084EEC0
:102950009BE2909318158093171590E080E00895FE
:10296000821B930B2091400D3091410D820F931FDC
:10297000FC01608381E090E008952091670B260FB1
:102980003327331F21323105ECF420918B0BFC01EE
:1029900090E080E0243069F082E00895A091670B18
:1029A0002191AC01495B544FA40FB52FB11D2C935D
:1029B0000196861798F38091670B680F6093670BF9
:1029C00080E0089581E0089508958FEF9FEF0895C6
:1029D0008FEF9FEF08958091400B90E09195819546
:1029E00091090895CF93DF93CB01EA01642F0E94F0
:1029F000BD14CE01DF91CF910895CF93DF931F9245
:102A0000CDB7DEB7698361E0CE0101960E94BD14A7
:102A100081E090E00F90DF91CF91089581E00895DB
:102A2000FC01808D882349F084859585DC01ED913A
:102A3000FC910190F081E02D199481E090E0938366
:102A4000828390E080E00895DC011C968D919C913A
:102A5000DC01ED91FC910680F781E02D1994DC01F9
:102A60001C968D919C91DC01ED91FC910284F38583
:102A7000E02D1994DC011C968D919C91DC01ED9167
:102A8000FC910484F585E02D1994DC011C968D9150
:102A90009C91DC01ED91FC910084F185E02D19946D
:102AA000EF92FF920F931F93DC01ED91FC9104884C
:102AB000F589E02DA5E0EA2EF12C05E010E019954E
:102AC0001F910F91FF90EF900895EF92FF920F9357
:102AD0001F93DC01ED91FC910488F589E02D7801CC
:102AE000890126E030E019951F910F91FF90EF903A
:102AF0000895EF92FF920F931F93DC01ED91FC91EB
:102B00000488F589E02D25E0E22EF12C05E010E0A7
:102B100026E030E019951F910F91FF90EF900895F6
:102B20008150823108F05AC0E82FF0E08827E4563F
:102B3000FA4E8F4F0C945E63BC15C015AE15B415DC
:102B4000B815EE15C315C915CD15D315D715DB1559
:102B5000E115E515EE15E915EF15F31580918000E7
:102B60008F77809380000895809180008F7DF9CFCA
:102B700080918000877FF5CF84B58F7784BD0895DD
:102B800084B58F7DFBCF8091B0008F778093B000AC
:102B900008958091B0008F7DF9CF809190008F775C
:102BA000809390000895809190008F7DF9CF80915F
:102BB0009000877FF5CF8091A0008F778093A00051
:102BC00008958091A0008F7DF9CF8091A000877F2C
:102BD000F5CF809120018F77809320010895809117
:102BE00020018F7DF9CF80912001877FF5CF86333B
:102BF00008F0865320917B00982F9870277F922BA6
:102C000090937B0020911B0590E4299F9001112453
:102C10008770822B80937C0080917A0080648093FF
:102C20007A0080917A0086FDFCCF809178009091A7
:102C3000790008952FB7F8946091380B7091390B93
:102C400080913A0B90913B0B2FBF0895AF92BF92AA
:102C5000CF92DF92EF92FF920F931F93CF93DF9368
:102C60006C017B018B01040F151FEB015E01AE1897
:102C7000BF08C017D10759F06991D601ED91FC91B9
:102C80000190F081E02DC6011995892B79F7C501D6
:102C9000DF91CF911F910F91FF90EF90DF90CF9038
:102CA000BF90AF900895FC01538D448D252F30E0E7
:102CB000842F90E0821B930B541710F0CF96089549
:102CC00001970895FC01918D828D981761F0A28D76
:102CD000AE0FBF2FB11D5D968C91928D9F5F9F733C
:102CE000928F90E008958FEF9FEF0895FC01918DF2
:102CF000828D981731F0828DE80FF11D858D90E05F
:102D000008958FEF9FEF0895FC01918D228D892FFB
:102D100090E0805C9F4F821B91098F7399270895E3
:102D200081ED9BE00E94841621E0892B09F420E0CC
:102D3000822F08958DE89CE00E94841621E0892B63
:102D400009F420E0822F0895CF92DF92EF92FF9254
:102D50001F93CF93DF93EC016A017B01122FE88967
:102D6000F98982E08083C11481EED806E104F10480
:102D7000A1F060E079E08DE390E0A70196010E9468
:102D8000FD62215031094109510956954795379502
:102D90002795211580E1380798F0E889F989108294
:102DA00060E874E88EE190E0A70196010E94FD6260
:102DB0002150310941095109569547953795279575
:102DC000EC85FD853083EE85FF852083188EEC89A8
:102DD000FD891083EA89FB89808180618083EA898B
:102DE000FB89808188608083EA89FB898081806893
:102DF0008083EA89FB8980818F7D8083DF91CF91F9
:102E00001F91FF90EF90DF90CF900895FC01A48D6B
:102E1000A80FB92FB11DA35ABF4F2C91848D90E0FC
:102E200001968F739927848FA689B7892C93A089DF
:102E3000B1898C91837080648C93938D848D981369
:102E400006C00288F389E02D80818F7D80830895FC
:102E5000EF92FF920F931F93CF93DF93EC0181E0EA
:102E6000888F9B8D8C8D98131AC0E889F989808191
:102E700085FF15C09FB7F894EE89FF896083E889C4
:102E8000F98980818370806480839FBF81E090E0B6
:102E9000DF91CF911F910F91FF90EF900895F62E43
:102EA0000B8D10E00F5F1F4F0F731127E02E8C8DDD
:102EB0008E110CC00FB607FCFACFE889F989808122
:102EC00085FFF5CFCE010E940617F1CFEB8DEC0FF9
:102ED000FD2FF11DE35AFF4FF0829FB7F8940B8F3F
:102EE000EA89FB8980818062CFCFCF93DF93EC01A9
:102EF000888D8823B9F0AA89BB89E889F9898C91E2
:102F000085FD03C0808186FD0DC00FB607FCF7CF9D
:102F10008C9185FFF2CF808185FFEDCFCE010E949D
:102F20000617E9CFDF91CF91089580E090E0892BDB
:102F300029F00E949A1681110E94000080E090E022
:102F4000892B49F080E090E0892B29F00E94000055
:102F500081110E94000080E090E0892B29F00E94FE
:102F6000901681110E94000080E090E0892B49F0CA
:102F700080E090E0892B29F00E94000081110C94E0
:102F80000000089580E00895DC011A96ED91FC910F
:102F900030E020E01994DC011496ED91FC9130E0D2
:102FA00020E040E060E11994DC011696ED91FC917F
:102FB00030E020E040E069E11994DC011696ED91E3
:102FC000FC9130E020E040E068E119949A01DC01D6
:102FD0001696ED91FC91462F67E11994EF92FF92BE
:102FE0000F931F93CF93DF931F92CDB7DEB77C0172
:102FF0008B01D8016C91673129F150F46531A0F44F
:103000000F90DF91CF911F910F91FF90EF90089556
:103010006A3118F16E3FA1F7F8014181498369E2F5
:10302000C7010E94C4170BC0F80141814983D70131
:103030001696ED91FC9130E020E0C70119950E5FE6
:103040001F4FD7CFF80181818983AE014F5F5F4F5A
:1030500061E0C7010E94E617F2CF0F5F1F4FD70153
:103060001696ED91FC9130E020E040E0C701199503
:10307000C0CF462FDC011696ED91FC9130E020E0A8
:1030800065E11994AF92BF92CF92DF92EF92FF92D7
:103090000F931F93CF93DF93EC01693089F48BE793
:1030A00095E0998388831C8A81E0DF91CF911F91FD
:1030B0000F91FF90EF90DF90CF90BF90AF90089569
:1030C00079016B3009F440C06F3009F444C080E0EE
:1030D0006A3059F7EA85FB8530E020E040E068E29D
:1030E000CE011995EE81FF8130E020E040E064E1FF
:1030F000CE01199541E06BE4CE010E94C417E8812E
:10310000F981448169E2CE010E94C41740E06BE47A
:10311000CE010E94C417E881F981448169E2CE01A1
:103120000E94C41741E06BE4CE010E94C417E881FD
:10313000F981458169E2CE010E94C41768E675E015
:10314000CE010E94EE17B0CF61E675E04423C1F3D3
:1031500066E575E0F5CFF9010481000F000F000F5F
:1031600013811695003210F00052185FCE010E94B4
:10317000DD17F701A080B1806EE3CE010E943918FF
:103180006EE3CE010E943918D12C1068602F6D0DAE
:103190006068CE010E943918612FCE010E94391853
:1031A000F701C280A5016C2DCE010E94E617AC0C80
:1031B000B11CD394F8E0DF12E9CFCE010E94D417FE
:1031C00073CF9A01DC011896ED91FC91462F67E1CF
:1031D0001994CF93DF931F92CDB7DEB76983AE0109
:1031E0004F5F5F4F61E00E94E1180F90DF91CF9138
:1031F0000895CF92DF92EF92FF920F931F93CF9398
:10320000DF93EC01142F79016631C1F130F46431A0
:1032100049F06531A9F080E040C0673109F446C04B
:103220006A31C8F7E885F9859701412FCE01DF9112
:10323000CF911F910F91FF90EF90DF90CF90199455
:1032400068EF0E94E91841E06CE2CE010E94C417C9
:10325000612F607FCE010E94E91841E06CE2CE014F
:103260000E94C417612F6295607FCE010E94E91809
:1032700041E06CE2CE010E94C4170EC068EF0E94CC
:10328000E918612F607FCE010E94E918612F6295D5
:10329000607FCE010E94E91881E0DF91CF911F91FC
:1032A0000F91FF90EF90DF90CF9008956AEF0E940A
:1032B000E91841E06CE2CE010E94C417DE2CCF2C4D
:1032C000012F083008F5012F069506950695D12E99
:1032D00088EF089FD00C1124E8E00E9F8001112494
:1032E0000E0D1F1DDD2021F2F801F1908F016F2DD1
:1032F000607FCE010E94E9186F2D6295607FCE013C
:103300000E94E918DA94EECFA2EBBAE0ED2DFC2D85
:103310009F01285F3F4F8191982F907F9C938295CA
:10332000807F11968C9311971296E217F30799F705
:10333000DE2ECF2E085042EB5AE060E1CE010E9413
:10334000E118BFCF662329F06A3019F0862F90E08C
:1033500008958FEF9FEF08950F93DC01FC01EE5B62
:10336000FF4F9081941B492F31979081961B692FB5
:1033700001110EC04150621BDE968C91DE97481BF6
:10338000D496ED91FC91D597CD0119950F910895A3
:10339000013091F76150421BEFCFCF93DF93FC01D7
:1033A000A081B18182AD982F990F990F990F95AF98
:1033B00050969C915097903208F09FE1990F990F89
:1033C000990F94AF23AD922F990F990F990F96AF44
:1033D00051963C915197682F620F7727771F3617C8
:1033E000170614F4832F821B97AFEF01C05CDF4FE9
:1033F000880F880F880F890F8883219680EF888334
:1034000054968D919C915597813F910508F488833E
:10341000EE5BFF4F56968C918083DF91CF9108959C
:103420000F93CF93DF93DC01ED91FC915089362F00
:103430003770E0E8F0E002C0F595E7953A95E2F7DD
:103440003E2FA52FB0E0FC01C0ADD1AD66956695CD
:103450006695E62FF0E0549FE00DF11D1124EC0F6E
:10346000FD1FEC01C758DF4F011116C08881823063
:1034700018F49081932B90838881813019F090818A
:1034800093279083369511F4319630E8215071F7E7
:10349000DF91CF910F9108958881823018F4908147
:1034A000932B90838881813019F0908193279083AA
:1034B000EA0FFB1F215081F7EBCF0F93FC01EB5B71
:1034C000FF4F308131965081451730F4301738F076
:1034D000041728F080E013C03017D0F3FBCFFC01B5
:1034E000ED5BFF4F30818C5B9F4FFC018081681743
:1034F00040F481E0321718F081E0261758F70F9159
:1035000008953217C8F3E6CF3F924F925F926F92C1
:103510007F928F929F92AF92BF92CF92DF92EF9263
:10352000FF920F931F93CF93DF93EC014C0183E441
:10353000880E911CF4011082329730805E01F4E411
:10354000AF0EB11CF50130827E01F5E4EF0EF11CE7
:10355000F70110823397108132978081181728F075
:10356000F12FF81B8F2FF70180838FAD181B6E0191
:10357000F6E4CF0ED11CF60110833496708032979A
:1035800050803196608032974080072D252D462D42
:10359000642DCE010E945D1ACD58DF4F811113C0FA
:1035A0001882DF91CF911F910F91FF90EF90DF90E4
:1035B000CF90BF90AF909F908F907F906F905F90D3
:1035C0004F903F90089581E08883442011F0F401EA
:1035D0004082531410F4F5015082F7018081861562
:1035E00008F460827116E8F6F6017082DACF0F9364
:1035F000DC01802FFD01ED58FF4F90819923E9F107
:103600002223D9F1223020F0023079F56F5F621B5E
:10361000082F0170FD0180FD32C0EB5BFF4F808100
:10362000481758F131968081481738F532979081C4
:1036300031978081260F2617F0F46917D8F42FEF01
:10364000290F8217D0F4681708F4682F291708F497
:10365000922F961BD696ED91FC91D7970480F58119
:10366000E02D292FCD01199508C0033089F64F5F51
:10367000421BCECF682F691720F30F910895ED5BA1
:10368000FF4F80816817C8F3319680816817A8F7CB
:103690003296908131978081240F241778F449174E
:1036A00060F42FEF290F821740F7481708F4482FCE
:1036B000291708F4922F941BCDCF482F4917E8F60D
:1036C000F2CF0F939091150F6917A0F09091160FFC
:1036D000691780F49091130F891760F09091140F7F
:1036E000891740F4462F682F00E021E080ED9EE02E
:1036F0000E94F71A0F910895FF920F931F93CF9393
:10370000DF93F82ED62F142FC22F00FF0CC0622F8C
:103710006D1B842F8F0D0E94611B6C2F6F198D2FD5
:10372000810F0E94611B01FF0CC06C2F6D1B812F4C
:103730008F190E94611B6C2F6F19812F8D1B0E94A6
:10374000611B03FF0CC06C2F6D0F812F8F0D0E942A
:10375000611B6C2F6F0D8D2F810F0E94611B02FF6B
:1037600011C06C2F6D0F812F8F190E94611B6C2F60
:103770006F0D812F8D1BDF91CF911F910F91FF90C6
:103780000C94611BDF91CF911F910F91FF900895D1
:10379000CF92DF92EF92FF920F931F93CF93DF931D
:1037A000F82EE62EC42E03E0060F23E0280F4EEF7E
:1037B000460F6EEF680F80ED9EE00E945D1A882331
:1037C000D1F00C2D2E2D4F2D62E080E00E947C1B4D
:1037D000C0E012E08CEFD82EDFEFCF5F8C2F880F88
:1037E0008F5FD80F0C2D2E2D4F2D612F8C2F0E9407
:1037F0007C1BC11748F0DF91CF911F910F91FF9073
:10380000EF90DF90CF90089512E0D7FD04C0D394DD
:10381000D394DD0D11E0C1E0E0CFFF920F931F9331
:10382000CF93DF93C82FD62F0CE0080F262F482FF9
:1038300060E080ED9EE00E945D1A882309F443C099
:1038400042E012E01C0F612F82E00E94C81B41E0A1
:10385000612F1DEF1D0F812F0E94C81B44E009E05E
:103860000C0F602F82E00E94C81B48E0602F812F60
:103870000E94C81B83E0F82EFC0E8CEF8D0F833066
:1038800090F000E01AEF1D0F212F4C2F63E080ED28
:103890009EE00E94F71A4BE04C0F212F63E080ED71
:1038A0009EE00E94F71A01E026E04F2D60E080EDD7
:1038B0009EE00E94F71A6FEF6D0F26E04F2D80ED0E
:1038C0009EE00E94F71ADF91CF911F910F91FF9018
:1038D00008955F926F927F928F929F92AF92BF9264
:1038E000CF92DF92EF92FF920F931F93CF93DF93CC
:1038F000A82EC62FD42F6801B62EB20E742E780EC5
:103900000B2D272D462F682F80ED9EE00E945D1A1B
:103910008823B1F1D95FD695D695D695ED2EF12CA9
:10392000552453945C0E052D272D4C2F6A2D80EDC8
:103930009EE00E945D1A8823F1F06090490FDA2D15
:10394000460111E0F4018081812351F16092490F19
:1039500000E021E04C2F6D2F80ED9EE00E94F71AD1
:10396000DF5F110F21F4FFEF8F1A9F0A11E07D1224
:10397000E9CF6092490FCE0CDF1CC52DB510D0CF1A
:10398000DF91CF911F910F91FF90EF90DF90CF903B
:10399000BF90AF909F908F907F906F905F900895B1
:1039A0008091480F8111DCCF81E0611080E080932D
:1039B000490FCECFFF920F931F93CF93DF93D82F52
:1039C000C62FF42E18E0160F282F240F012F462F94
:1039D000682F80ED9EE00E945D1A882359F000E078
:1039E0002F2D4C2F6D2F80ED9EE00E94F71ACF5F98
:1039F0001C13F5CFDF91CF911F910F91FF90089588
:103A000080E00895213039F020F0223031F0840F29
:103A10000895860F0895841B0895861B089521300C
:103A200039F020F0223031F0861B0895840F08957C
:103A3000860F0895841B08955F926F927F928F92F4
:103A40009F92AF92BF92CF92DF92EF92FF920F932D
:103A50001F93CF93DF935C01162F642EEC01C15BA3
:103A6000DF4FDC80ED804C0189E7880E911CFE80E1
:103A7000FD18C12EF11608F4CF2C5B800C85202F89
:103A80004E2D6D2D8A810E94021D782E202F4E2DE5
:103A90006D2D852D0E940F1D482F662071F08A859F
:103AA000F40180832C2D672DC5010E94F71A1F1584
:103AB00048F01F19E394D12CDACF89858111F7CF13
:103AC0008B85EECF1D0D1C83ED82DF91CF911F9171
:103AD0000F91FF90EF90DF90CF90BF90AF909F90AD
:103AE0008F907F906F905F900895DC0118964C91B5
:103AF0001897ED91FC911197249130E0042E02C0AB
:103B0000359527950A94E2F7842F860F883068F060
:103B100031961196FC93EE93E49198E0941B01C0CA
:103B2000EE0F9A95EAF72E2B885018968C938FEF0C
:103B30009FEF01C0880F6A95EAF780958223089568
:103B4000FC01E60FF11D849190E0982F88273196B3
:103B5000E4918E0F911D0895CF93DF9320911B0F59
:103B600030911C0F2817390709F490C0EC0190938D
:103B70001C0F80931B0FFC01849180932C0F3196B6
:103B8000E491E0932D0FFE013296E491E0932E0F25
:103B9000FE013396E491E0932F0FFE013496E491F9
:103BA000E093300FFE013596E491E093310FFE0172
:103BB0003696E491E093320FFE013796E491E0935C
:103BC000330FFE013896E491E093340FFE013996ED
:103BD000E491E093350FFE013A96E491E093360FBD
:103BE000FE013B96E491E093370FFE013C96E49191
:103BF000E093380FFE013D96E491E093390FFE010A
:103C00003E96E491E0933A0FFE013F96E491E093F3
:103C10003B0FFE017096E491E0933C0F61E1CE0111
:103C20000E94A01D90933E0F80933D0F63E1CE0153
:103C30000E94A01D9093400F80933F0F65E1CE013D
:103C40000E94A01D9093420F8093410F80911B0F03
:103C500090911C0F892BD1F08091390F8093450FE3
:103C600040913A0F4093460F9091440F992371F081
:103C7000913079F490913B0F891714F49093450F8C
:103C800080913C0F841714F48093460FDF91CF91FD
:103C900008953091360F2091380F082E000C990BA3
:103CA000622F022E000C770B630F711D37FD7A9582
:103CB000861797071CF4320F3093450F241734F7FB
:103CC0002093460FE3CFAF92BF92CF92DF92EF9255
:103CD000FF920F931F93CF93DF9300D01F921F92F9
:103CE000CDB7DEB78C01DC01DA96AC90DA97DB96C3
:103CF000EC90DB97ED91FC91B188FE2CD12CC12C7E
:103D0000D801ED91FC9111978089D8962D913C9125
:103D10001C82FD828B83B8E08B9FC00111248C9D97
:103D2000A0018D9D500D9C9D500D1124240F351F19
:103D30003A832983D8011496ED91FC919E012F5F5F
:103D40003F4F41E06FE0C8011995F3948F2D8E1914
:103D50008A1528F4BFEFCB1ADB0AFB1488F20F9008
:103D60000F900F900F900F90DF91CF911F910F91B7
:103D7000FF90EF90DF90CF90BF90AF90089580EDCF
:103D80009EE00E94631E80ED9EE00C94CB17FC0128
:103D900090810180F281E02D292F209560FF14C0D1
:103DA000F8948281822382838181892B8183A3E29B
:103DB000B0E01197F1F78281982B9283789487ED88
:103DC00090E00197F1F70895F8948281822382832D
:103DD0008181892B8183AFEFB0E01197F1F7828168
:103DE000982B928378948FE090E0EBCF009741F08E
:103DF000DC015896ED91FC9104A0F5A1E02D1994F9
:103E00000895009741F0DC015896ED91FC91068CE5
:103E1000F78DE02D19940895009741F0DC01589634
:103E2000ED91FC91048CF58DE02D199486E190E0E4
:103E300090931815809317158FEF9FEF08950097B3
:103E400041F0DC015896ED91FC9100A0F1A1E02D2C
:103E5000199486E190E090931815809317158FEFD1
:103E60009FEF08958F929F92AF92BF92CF92DF9271
:103E7000EF92FF920F931F93CF93DF93FA01890183
:103E8000C12CD12C76013097C1F020813181428143
:103E90005381A8EEB3E00E94EA626B017C01648169
:103EA00075818681978128EE33E040E050E00E94E2
:103EB000FD62C20ED31EE41EF51E0E941A164B01AF
:103EC0005C018EE69CE00E944515EC01801791078D
:103ED0005CF40E941A16681979098A099B096C1505
:103EE0007D058E059F0568F3209741F484E790E0F7
:103EF0009093181580931715CFEFDFEFCE01DF9168
:103F0000CF911F910F91FF90EF90DF90CF90BF90D6
:103F1000AF909F908F9008958EE69CE00E9445158B
:103F2000892B29F08EE69CE00E942F15F5CF90E0BA
:103F300080E00895FB018081FA019081891759F092
:103F4000882349F083EF9BE290931815809317150F
:103F50008FEF9FEF089590E080E008958F929F92F9
:103F6000AF92BF92EF92FF920F931F93CF93DF9385
:103F70007A018B01D0E0C0E0CE15DF0558F50E9434
:103F80001A166093760C7093770C8093780C90934C
:103F9000790C8EE69CE00E942F1597FF29C00E94A5
:103FA0001A168090760C9090770CA090780CB090B8
:103FB000790C681979098A099B098090720C909094
:103FC000730CA090740CB090750C681579058A0577
:103FD0009B05F8F2BE0190E080E0DF91CF911F9148
:103FE0000F91FF90EF90BF90AF909F908F900895AA
:103FF000F80181938F012196BFCFFB0180819181D0
:1040000002979183808390E080E00895DC01680F3F
:10401000791F8FEF9FEFA617B70769F02D9129271A
:1040200030E0F901ED51F74F94919827F901ED51E6
:10403000F84F8491F0CF0895EF92FF920F931F9362
:10404000CF93DF937C01EB018A01888190E0F70137
:10405000208131812817390711F0892B51F5B801DA
:1040600062507109CE010E940620C00FD11FFE01CF
:1040700032972081219738812327322723278217DF
:10408000930779F0F701868182FF03C0C7010E9480
:104090008C1F8EEE9BE290931815809317150FEFEF
:1040A0001FEFC801DF91CF911F910F91FF90EF900B
:1040B000089510E000E0F5CF0F931F93CF93DF93A7
:1040C000EC018B010E940620C00FD11F98838983C9
:1040D000C8010296DF91CF911F910F910895FC01C5
:1040E0002081FB012083FC018281FB01818382E02E
:1040F00090E00895683F710530F4FC01718360839E
:1041000090E080E0089586E190E090931815809308
:1041100017158FEF9FEF08958F929F92AF92BF92E6
:10412000CF92DF92EF92FF920F931F93CF93DF9383
:10413000EC01898182FD14C085FD12C0EC89FD89E6
:1041400020813E8981FB992790F983FB882780F99C
:104150008927922F932321E009F020E082278A8B80
:104160000E941A16AB01BC019A892B898881992378
:1041700009F47BC0211179C080FD5DC08160888316
:104180004E875F87688B798B8B89882319F19923F8
:1041900009F10D811E8130E020E0CE84DF84E888C3
:1041A000F9884A015B018C189D08AE08BF087501AB
:1041B0006401C016D106E206F30660F0888181FD35
:1041C00009C02B852D878A648F7788834E875F8708
:1041D000688B798B0E851F8528893989401B510B87
:1041E000620B730B0F81188530E020E040175107F8
:1041F0006207730750F08B85882339F0911105C051
:104200008C871B86888184608883898186FF06C0AD
:104210001C8698819B7F98838F7B8983DF91CF91C8
:104220001F910F91FF90EF90DF90CF90BF90AF90D4
:104230009F908F9008950E851F85288939896A017E
:104240007B01C01AD10AE20AF30A0B811C8130E01B
:1042500020E0C016D106E206F30608F4BBCF21E049
:104260002B8B8062806888838FCF8E7F88839111AB
:104270008BCF222309F4AECF1B8A81FD03C08B852F
:104280008F5F8B8788818D7F806188834E875F8772
:10429000688B798B86FF04C01C861B868F7B888386
:1042A000888187FF97CF8F77888389818160898311
:1042B0006BCFCF93DF93EC01898184FF03C0CE01E4
:1042C0000E948C20888186FB882780F9DF91CF911E
:1042D0000895CF93DF93EC01898184FF03C0CE0161
:1042E0000E948C209981892F817090FF02C09E7F4F
:1042F0009983DF91CF91089508950895282F30E094
:10430000982F927080FF20C04BE0911101C046E0D1
:1043100052E086FF51E094E085FF91E063E035953F
:1043200027956A95E1F72270382F36FB330F330B50
:1043300030F93270230F2E5F240F250F83FF09C041
:104340008CE0290F820F089542E09111E1CF41E006
:10435000DFCF80E0F6CFFC01680F791F90E057E9CE
:104360006E177F0789F0419188E0A42FA927292F94
:1043700030E035952795922FA0FF02C0952F922708
:104380004695815091F7ECCF892F0895CF92DF9217
:10439000EF92FF920F931F93CF93DF936C01EB018A
:1043A0007B01E40EF51E10E000E0CE15DF0561F0A4
:1043B0006991D601ED91FC910190F081E02DC6014B
:1043C0001995080F191FF1CFC801DF91CF911F91E7
:1043D0000F91FF90EF90DF90CF900895089590E0B7
:1043E00080E00895CF93DF9300D000D000D0CDB708
:1043F000DEB7BE016F5F7F4F0E94AA47882331F06E
:104400008D818F33A9F020F48F31A1F080E007C0B7
:104410008F3521F08F37D1F78CE001C08BE02996E2
:104420000FB6F894DEBF0FBECDBFDF91CF910895D8
:104430008AE0F5CF89E0F3CFEF92FF921F93CF93FD
:10444000DF93CDB7DEB7A0970FB6F894DEBF0FBEEF
:10445000CDBF162F9E012F5F3F4F790190E2F901EA
:1044600011929A95E9F7E82FF0E0EE0FFF1FE40FA5
:10447000F51F859194912F5E3F4FD7018E199F09AB
:10448000FC01EA0FFB1FE491ED93A217B307C1F7FC
:1044900084EF90E10E94AC1D6CE0169F602D11240A
:1044A0006250A70183E00E943D4A8FEB94E10E9495
:1044B000AC1DA0960FB6F894DEBF0FBECDBFDF9146
:1044C000CF911F91FF90EF9008950E949F660F93E8
:1044D0001F93F801DC018D919C918F3F980711F497
:1044E0000E949F6680836183528343833483258344
:1044F00086E090E01F910F910895FC01A081B181A9
:1045000050962C9182AD38E0839FC0011124289FE2
:10451000A001299F500D112470E060E080AD91ADA5
:104520000C94AD66CF93DF93EC018A8D9B8D0E9436
:104530003565CE01DF91CF910C9435651F920F92B6
:104540000FB60F9211240BB60F922F933F934F93F8
:104550005F936F937F938F939F93AF93BF93EF93EB
:10456000FF9381ED9BE00E940617FF91EF91BF91B1
:10457000AF919F918F917F916F915F914F913F91FB
:104580002F910F900BBE0F900FBE0F901F9018959C
:104590001F920F920FB60F9211240BB60F922F930A
:1045A0008F939F93EF93FF93E091E10BF091E20BD8
:1045B0008081E091E70BF091E80B82FD1DC09081B6
:1045C0008091EA0B8F5F8F732091EB0B821741F084
:1045D000E091EA0BF0E0EF52F44F958F8093EA0BF5
:1045E000FF91EF919F918F912F910F900BBE0F90A4
:1045F0000FBE0F901F9018958081F2CFCF93DF935D
:10460000282F30E0F901E759F84D8491F901E15F75
:10461000F74DD491F901E753F84DC491CC23A1F0A3
:1046200081110E949015EC2FF0E0EE0FFF1FE15575
:10463000F84DA591B491EC91ED2381E090E009F45F
:1046400080E0DF91CF91089580E090E0FACF1F9352
:10465000CF93DF93282F30E0F901E759F84D84918B
:10466000F901E15FF74DD491F901E753F84DC49199
:10467000CC23A9F0162F81110E949015EC2FF0E0A9
:10468000EE0FFF1FEA5FF24FA591B4918FB7F89438
:10469000EC91111108C0D095DE23DC938FBFDF9120
:1046A000CF911F910895DE2BF8CF1F93CF93DF9307
:1046B00085ED8093BC008091430B9091440BA091B9
:1046C000450BB091460B0796A11DB11D23E0B69591
:1046D000A795979587952A95D1F72091BC0024FD41
:1046E00003C010928B0B52C04091430B5091440B6E
:1046F0006091450B7091460B452B462B472B69F378
:104700000097A105B10541F025E32A95F1F70000D6
:104710000197A109B109E1CF8091420BC1E0C0939B
:10472000410B882399F1D091B8001091BA00809183
:10473000BC008A7B8093BC0060E084E10E94272358
:1047400060E085E10E94272310928B0BC0938D0BB4
:1047500010928C0B61E084E10E94272361E085E1E7
:104760000E9427238091B9008E7F8093B9008091A9
:10477000B9008D7F8093B90088E48093B80085E408
:104780008093BC001093BA00D093B800DF91CF9112
:104790001F9108951F920F920FB60F9211240BB61E
:1047A0000F922F933F934F935F936F937F938F93CA
:1047B0009F93AF93BF93EF93FF938091B900887F4E
:1047C000803609F44DC008F040C0883209F4A7C013
:1047D00028F5803109F49BC0C8F4882309F4F7C098
:1047E000883009F494C0FF91EF91BF91AF919F91F0
:1047F0008F917F916F915F914F913F912F910F908A
:104800000BBE0F900FBE0F901F901895883109F4C2
:1048100086C0803241F780938A0B14C0803409F43B
:104820009BC040F48033B9F38833E9F680938A0B58
:1048300085ECAEC0803509F483C0883509F494C096
:10484000883489F60E945523CECF883909F48AC06E
:1048500038F5883729F050F4883611F0803719F68A
:1048600083E080938B0B1092890B55C0883809F434
:1048700079C0803919F0803809F0B5CF8091890B63
:10488000803208F06FC0E091890B81E08E0F809339
:10489000890B8091BB00F0E0E759F44F80833BC067
:1048A000803B39F0D0F4803A09F477C0883A09F0B7
:1048B0009ACF84E080938B0B1092680B1092670B59
:1048C000F0E0E0E019958091670B81110FC081E065
:1048D0008093670B1092470B09C0803C09F4A8CF66
:1048E000883C09F4A5CF883B09F07DCFE091680BA7
:1048F00081E08E0F8093680BF0E0E95BF44F8081DC
:104900008093BB009091680B8091670B29C08091C8
:10491000B00B8093BB0085EC8093BC0064CF90917A
:10492000AF0B8091AE0B981758F5E091AF0B81E07B
:104930008E0F8093AF0BF0E0E257F44F8081E9CF08
:10494000E091AF0B81E08E0F8093AF0B8091BB00A5
:10495000F0E0E257F44F80839091AF0B8091AE0B63
:104960009817C8F285E8D8CFE091AF0B81E08E0FA1
:104970008093AF0B8091BB00F0E0E257F44F80834F
:1049800080918D0B81115ECF81E080938C0B84EA46
:104990008093BC0010928B0B26CF85EC8093BC00DB
:1049A00010928B0B8091890B803230F4E091890B4F
:1049B000F0E0E759F44F10826091890B70E089E6CE
:1049C0009BE0F0E0E0E019951092890B0CCF10927B
:1049D0008A0B38CF90911C0589130DC0E0E2FDE0F1
:1049E000E4919FEF90931C05E230E1F038F4EE2360
:1049F00081F0E13089F060E00C942723E43049F144
:104A000010F1E530C1F7909173009D7F9093730092
:104A1000F2CF10926E00EFCF90916F009D7F909338
:104A20006F00E9CF909170009D7F9093700091E0AE
:104A30009093B0009091B100987F94609093B100F2
:104A40001092B300D8CF909171009D7F9093710028
:104A5000D2CF909172009D7F90937200CCCFDC01F9
:104A60005A96ED91FC91248135814081518162817A
:104A700073818EE69CE00E9450158091800C90918D
:104A8000810C97FD03C060E00E94272390E080E046
:104A90000895CF92DF92EF92FF927B016A0180919D
:104AA000800C9091810C97FD03C061E00E94272348
:104AB00080917E0C90917F0C97FD0BC061E00E946D
:104AC00027238091820C9091830C009711F00E9413
:104AD000631481E08093860CA601B7018EE69CE00A
:104AE0000E9426166C01F12CE12C80917A0C909199
:104AF0007B0CDC01ED91FC910680F781E02D19958E
:104B000080917E0C90917F0C97FD0DC08091840C5C
:104B10009091850C009711F00E94631460E08091E1
:104B20007E0C0E9427231092860C8091800C90911D
:104B3000810C97FD03C060E00E942723C701B601E6
:104B4000FF90EF90DF90CF900895CF93DF9390E0A8
:104B5000FC01E15FF74D24918753984DFC0184914E
:104B60008823C9F090E0880F991FFC01E451F34FAE
:104B7000A591B491FC01EA5FF24FC591D491611106
:104B80000DC09FB7F8948C91209582238C938881D7
:104B9000282328839FBFDF91CF910895623051F47D
:104BA0009FB7F8943C91822F809583238C93E88162
:104BB0002E2BEFCF8FB7F894EC912E2B2C938FBF29
:104BC000EACFEF92FF920F931F93CF93DF937C0175
:104BD0008B0124E1269FC001279F900D11240D9683
:104BE0009093800F80937F0F61E08091820F0E94ED
:104BF000A52583E00E94E54AE7010E0D1F1DC017A1
:104C0000D10721F089910E940A4BF9CF60E0809191
:104C1000820F0E94272360E08091820FDF91CF9165
:104C20001F910F91FF90EF900C94A5254F925F92EA
:104C30006F927F928F929F92AF92BF92CF92DF92AC
:104C4000EF92FF920F931F93CF938C014A015B0168
:104C500080911C05823099F08F3F09F459C0CF91A3
:104C60001F910F91FF90EF90DF90CF90BF90AF908A
:104C70009F908F907F906F905F904F900895E0E2AB
:104C8000FDE0C491C7FDEBCF61E082E00E94A52565
:104C9000CC2319F0C23009F05EC1712C612C60E4A4
:104CA00072E48FE090E0A30198010E94CB62690159
:104CB0007A0181E0C81AD108E108F108C23009F090
:104CC000FBC08FEFC816D104E104F10409F00CF425
:104CD00011C160E970ED83E090E0A30198010E94AA
:104CE000CB6269017A0181E0C81AD108E108F108B4
:104CF0008FEFC816D104E104F10411F008F0BBC134
:104D000083E09091B100987F892B8093B100F9C026
:104D100082E080931C05E0E2FDE0C4918C2FCF3F40
:104D200009F49DCFC23009F468C060F4CC2379F156
:104D3000C13009F444C087FD92CF61E082E00E9457
:104D4000A525A8CFC43009F499C008F478C0C530AF
:104D500091F7109220011092210180912101886029
:104D60008093210180912101816080932101EBECEE
:104D7000F7E2E491F0E0EE0FFF1FEA5FF24F85915A
:104D80009491E1E1F8E2E491E093B10B7DCF14BCA2
:104D900015BC84B5826084BD85B5816085BDEBECB2
:104DA000F7E2E491F0E0EE0FFF1FEA5FF24F85912A
:104DB0009491E1E1F8E2E491E093B80B65CF1092B1
:104DC0008000109281008091810088608093810032
:104DD00080918100816080938100EBECF7E2E491A7
:104DE000F0E0EE0FFF1FEA5FF24F85919491E1E151
:104DF000F8E2E491E093B70B47CF1092B000109225
:104E0000B1008091B00082608093B0008091B100C9
:104E100081608093B100EBECF7E2E491F0E0EE0FFB
:104E2000FF1FEA5FF24F859194919093B60B8093A8
:104E3000B50BE1E1F8E2E491E093B40B25CF1092D9
:104E40009000109291008091910088608093910071
:104E500080919100816080939100EBECF7E2E49106
:104E6000F0E0EE0FFF1FEA5FF24F85919491E1E1D0
:104E7000F8E2E491E093B30BC3E006CF1092A000F8
:104E80001092A1008091A10088608093A100809180
:104E9000A10081608093A100EBECF7E2E491F0E0E7
:104EA000EE0FFF1FEA5FF24F85919491E1E1F8E286
:104EB000E491E093B20BE8CE8FEFC816D104E10481
:104EC000F104A9F0A0F068E478EE81E090E0A3019D
:104ED00098010E94CB6269017A0181E0C81AD10869
:104EE000E108F10893E0CC2339F084E00ACF92E0A6
:104EF000CC2311F082E005CF85B5887F892B85BD55
:104F0000C0E0D801AA0FBB1FA50194010E94EA626C
:104F100028EE33E040E050E00E94FD62C23009F428
:104F20005EC00CF090C0CC2309F44AC0C13009F037
:104F300096CED0928900C09288002093C90B3093FE
:104F4000CA0B4093CB0B5093CC0B80916F008260C7
:104F500080936F0084CE980150E040E060E072E101
:104F60008AE790E00E94CB6269017A0181E0C81A69
:104F7000D108E108F108C13039F480918100887FBF
:104F8000816080938100BDCFC33039F4809191005E
:104F9000887F816080939100B4CFC43039F48091D0
:104FA000A100887F81608093A100ABCFC53009F05C
:104FB000A8CF80912101887F816080932101A1CFBA
:104FC000C7BC2093CD0B3093CE0B4093CF0B5093A7
:104FD000D00B80916E00826080936E0040CEC092B4
:104FE000B3002093C50B3093C60B4093C70B50936F
:104FF000C80B8091700082608093700030CED09298
:105000009900C09298002093C10B3093C20B40933B
:10501000C30B5093C40B8091710082608093710028
:105020001ECED092A900C092A8002093BD0B309351
:10503000BE0B4093BF0B5093C00B809172008260F7
:10504000809372000CCEC43061F3CCF2C53009F00D
:1050500006CED0922901C09228012093B90B30933B
:10506000BA0B4093BB0B5093BC0B809173008260D2
:1050700080937300F4CD68E478EE81E090E0A301C2
:1050800098010E94CB6269017A0181E0C81AD108B7
:10509000E108F1082ACF0F931F93CF93DF938C0180
:1050A000FC01C485D585E881F9810680F781E02D72
:1050B000CE011995EA89FB8980818F7E8083EA89F8
:1050C000FB898081877F8083EA89FB8980818F7754
:1050D0008083EA89FB8980818F7D80838A8D898F97
:1050E000F8018289938997FD08C060E00E94272318
:1050F00060E0F80180890E94A525F80180899189E6
:1051000097FD0CC060E00E94272360E0F8018289CF
:10511000DF91CF911F910F910C94A525DF91CF9135
:105120001F910F9108958091800C9091810C97FDB3
:1051300003C061E00E9427238EE69CE00C944B287C
:105140008F929F92AF92BF92DF92EF92FF920F9356
:105150001F93CF93DF93EC014A015B01D22E898E1E
:105160009A8EAB8EBC8E2D8F3E8F1D8B0C8BFF8A43
:10517000EE8A8889998997FD07C061E00E94A5257C
:1051800060E088890E9427238A899B8997FD07C050
:1051900061E00E94A52561E08A890E942723188E7C
:1051A0002D2DB501A4018C859D85DF91CF911F9197
:1051B0000F91FF90EF90DF90BF90AF909F908F90F6
:1051C0000C94A4160F931F93CF93DF93EC016831D7
:1051D00009F46EC058F46431F9F0F901673181F0D7
:1051E00080E0DF91CF911F910F910895693109F40B
:1051F0009CC06032A9F76AE4CE010E94C41756C071
:10520000442309F453C081918EBD00000DB407FE04
:10521000FDCF8EB54150F4CFE881F9818C859D8515
:10522000AE85BF85892B8A2B8B2B41F48085918598
:10523000A285B3858C879D87AE87BF87418169E44E
:10524000CE010E94C417CFB7F8948091B10A8111A2
:1052500027C0EEEFF7E28491E4E4F8E29491E82FBE
:10526000F0E0EE0FFF1FE451F34FA591B491EC91E4
:10527000E92321F461E085E30E94272361E085E3CF
:105280000E94A5258CB580618CBD8CB580648CBDD9
:1052900061E084E30E94A52561E083E30E94A525E7
:1052A0008091B10A8F5F8093B10ACFBF81E099CF1F
:1052B000E881F981E485E15090E0E33020F4F0E00A
:1052C000ED5AFA4F90810C851D852E853F8540E073
:1052D00052E16AE770E080E00417150726073707F8
:1052E00040F476956795579547958F5F8630A1F77F
:1052F00087E09C709065282F2695922B8095817071
:105300009CBD8DBDE881F981408169E4CE010E9498
:10531000C417A881B981EA85FB8530E020E01296A8
:105320004C916CE2CE011995C1CFA881B981EA8573
:10533000FB8530E020E013964C916CE21995E881F2
:10534000F981418169E458CF3FB7F89480913C0BD3
:1053500090913D0BA0913E0BB0913F0B26B5A89BC1
:1053600005C02F3F19F00196A11DB11D3FBFBA2FF7
:10537000A92F982F8827BC01CD01620F711D811DB7
:10538000911D42E0660F771F881F991F4A95D1F73C
:105390000895CF92DF92EF92FF920F931F93CF93D6
:1053A000DF93009709F4C4C07B01EC0180910911DF
:1053B00081110AC0B701CE010E94E12588818111C7
:1053C0005EC086E090E012C060E08091810F0E9494
:1053D000A52507ED10E0C8010197F1F78091810F35
:1053E0000E94FE22892B59F08AE992E0DF91CF9149
:1053F0001F910F91FF90EF90DF90CF900895C8011B
:105400000197F1F78091810F0E94FE22892B61F7AD
:1054100087E490E00197F1F719E083E9C82ED12CD9
:105420008091810F0E94FE22892BF1F6C60101971F
:10543000F1F71150A9F78091810F0E94FE22892B6C
:1054400099F68FE290E00197F1F78091810F0E9429
:10545000FE22892B09F0C8CF0E94495E20E130E08E
:1054600040E050E00E94CB62CB010E946314809127
:10547000810F0E94FE22892B09F49CCFB5CF898130
:1054800082FF9FCF80910911882309F49ACF8091E0
:10549000820F9091810F891729F08F3F19F060E0FA
:1054A0000E9427230E94A4296B017C01CFE1D0E058
:1054B0000E94A429AB01BC014C195D096E097F094A
:1054C00080917F0F9091800FB0E0A0E048175907BE
:1054D0006A077B0768F560E08091810F0E942723AF
:1054E0006EE670E080E090E00E94454A811118C0AD
:1054F00061E08091820F0E94A52561E08091820F7A
:105500000E942723CE010197F1F760E08091820F7E
:105510000E94272360E08091820F0E94A525C8CFBA
:105520000E94A34A8F3F980719F3069709F449CFC1
:105530008FEF9FEF5BCF8F929F92AF92BF92CF92F0
:10554000DF92EF92FF926B017C010E94A4294B0134
:105550005C01C114D104E104F104B9F00E94A42952
:10556000681979098A099B09683E7340810591058C
:1055700080F321E0C21AD108E108F10888EE880E14
:1055800083E0981EA11CB11CE4CFFF90EF90DF9048
:10559000CF90BF90AF909F908F9008950F931F93DF
:1055A000CF93DF938C01C62F642FCC32E8F4CA323C
:1055B00008F041C0C83271F1C93209F442C080E03C
:1055C000C034D0F1CF73F801EC0FF11D868D8F3F01
:1055D00091F1C031E0F00E94FE2221E0892B09F414
:1055E00020E0F801218F27C0CD3289F140F384EB10
:1055F0008C0F823020F7CF73C00FD12FD11D8E8D2D
:1056000041112EC061E00E94A52560E08E8D0E94B0
:10561000272311C0025E1F4FD0E0F80181918F0156
:105620008F3F31F061E0D03108F062E00E94A525A3
:10563000DF5FD63191F781E0DF91CF911F910F911C
:10564000089570E090E080E00E949B2AF4CF85E00E
:1056500090E0433010F082E090E00E946314EBCFC2
:1056600062E00E94A525E7CFCF93DF93EC01288568
:1056700039854A855B85A8EEB3E00E94EA620E9404
:105680009B2A8C859D85DF91CF910C946314BF92EA
:10569000CF92DF92EF92FF920F931F93CF93DF93FE
:1056A000CDB7DEB7ED84FE84CF84D888B9880B8966
:1056B0001C89D70114968D919C91892B59F0AE01CC
:1056C000475E5F4F6F89788D80911D1590911E15F3
:1056D0000E94D15E8D899E89892B31F0C7010E947D
:1056E000342BC7010E941F1FF601828193818058CD
:1056F0009F4F93838283D7015896ED91FC91048448
:10570000F585E02DB801C6011995F801E80FF91FDC
:10571000B0820196DF91CF911F910F91FF90EF9092
:10572000DF90CF90BF9008952F923F924F925F925B
:105730006F927F928F929F92AF92BF92CF92DF92A1
:10574000EF92FF920F931F93CF93DF9300D000D07F
:1057500000D01F92CDB7DEB77C013B012A01DC01EE
:105760005896ED91FC915997028113810F5F1F4F5D
:10577000312C212C452BB1F018968D919D910D90D7
:10578000BC91A02D89839A83AB83BC83F701848568
:105790009585A685B7858D839E83AF83B887CE0117
:1057A00001961C01D12CC12C912C812CD70158962B
:1057B000ED91FC910115110549F4008CF18DE02D5E
:1057C000A401B301C70119955C0129C002A0F3A18E
:1057D000E02D9801A101BE01675F7F4FC7011995B8
:1057E0005C01D7019FEFA916B906F1F516968C91C9
:1057F00081FD04C0AA24AA94BA2C11C000911715E7
:10580000109118150437110521F5C7010E94342B9A
:10581000C7010E941F1F1093181500931715C5018B
:105820002A960FB6F894DEBF0FBECDBFDF91CF91A1
:105830001F910F91FF90EF90DF90CF90BF90AF90AE
:105840009F908F907F906F905F904F903F902F90A0
:105850000895023FBDE21B07F1F6C7010E94011F38
:10586000C7010E940C1FD7CF5896ED91FC91068876
:10587000F789E02DA801B301680D791DC7011995BD
:105880006115710509F582EF9DE2909318158093DB
:105890001715F701868181FFADCF00911715109183
:1058A0001815023FFDE21F0721F00F36110509F020
:1058B000A1CFC7010E94011FC7010E940C1F1093B6
:1058C00018150093171596CF6F3F760711F3860EC4
:1058D000971E061B170B09F099C0D7015896ED913A
:1058E000FC91C114D10441F0CA94CD2809F457C0E9
:1058F00082E0C82ED12C5ACFA281B381A60DB71D4C
:105900008C9141145104B9F490E087309105D4F0A2
:105910009C012F5031092230310508F47CC08631BA
:10592000910509F47EC04797D1F5CC24C394D12CBE
:1059300009E010E015C0813158F48F3018F485501B
:10594000823048F4CC24C394D12C04E010E008C089
:10595000863109F466C0CC24C394D12C01E010E058
:10596000F701408951896289738984899589A6895B
:10597000B789411551056105710529F40097A10505
:10598000B10509F413CF49835A836B837C838D83DC
:105990009E83AF83B887CE0101961C0107CFA281F9
:1059A000B381A60DB71D8C914114510401F58F30C0
:1059B00020F08131A8F08731B9F084819581080FFA
:1059C000191F9401200F311F868197818217930739
:1059D000D4F48FEE9BE290931815809317150ACF9D
:1059E00015960C9110E0E9CF19960C91FBCF90E041
:1059F000853091052CF08131910511F04797E9F63A
:105A000011960C91EFCF52E0C52ED12C1016110635
:105A10000CF4A6CFCBCECC24C394D12C05E010E05F
:105A20009FCFCC24C394D12C06E010E099CFCF9324
:105A3000DF93FC01C28DD38D2E813F81232B59F042
:105A400041E050E00E94942B1F821E8290E080E093
:105A5000DF91CF91089550E040E00E94942B009791
:105A6000B9F721E030E03F832E83F2CF2F923F92AF
:105A70004F925F926F927F928F929F92AF92BF925E
:105A8000CF92DF92EF92FF920F931F93CF93DF930A
:105A9000CDB7DEB7C851D2400FB6F894DEBF0FBE07
:105AA000CDBFFC01A281B381109701F586E190E0A2
:105AB0009093181580931715C85EDD4F0FB6F894B4
:105AC000DEBF0FBECDBFDF91CF911F910F91FF9031
:105AD000EF90DF90CF90BF90AF909F908F907F908E
